{
  "contractName": "mortal",
  "abi": [
    {
      "inputs": [],
      "payable": false,
      "stateMutability": "nonpayable",
      "type": "constructor"
    },
    {
      "constant": false,
      "inputs": [],
      "name": "kill",
      "outputs": [],
      "payable": false,
      "stateMutability": "nonpayable",
      "type": "function"
    }
  ],
  "bytecode": "0x6060604052341561000f57600080fd5b336000806101000a81548173ffffffffffffffffffffffffffffffffffffffff021916908373ffffffffffffffffffffffffffffffffffffffff1602179055506101128061005e6000396000f300606060405260043610603f576000357c0100000000000000000000000000000000000000000000000000000000900463ffffffff16806341c0e1b5146044575b600080fd5b3415604e57600080fd5b60546056565b005b6000809054906101000a900473ffffffffffffffffffffffffffffffffffffffff1673ffffffffffffffffffffffffffffffffffffffff163373ffffffffffffffffffffffffffffffffffffffff16141560e4576000809054906101000a900473ffffffffffffffffffffffffffffffffffffffff1673ffffffffffffffffffffffffffffffffffffffff16ff5b5600a165627a7a7230582039bd05b0d4315d2ccae8e90b9fc92f7d25bf26c39cb3f5e6a0266989000348a40029",
  "source": "pragma solidity ^0.4.17;\ncontract mortal {\n    /* Define variable owner of the type address */\n    address owner;\n\n    /* This function is executed at initialization and sets the owner of the contract */\n    function mortal() { owner = msg.sender; }\n\n    /* Function to recover the funds on the contract */\n    function kill() {\n            if (msg.sender == owner) {\n                selfdestruct(owner);\n            }\n     }\n}\n\ncontract greeter is mortal {\n    /* Define variable greeting of the type string */\n    string greeting;\n    \n    /* This runs when the contract is executed */\n    function greeter(string _greeting) public {\n        greeting = _greeting;\n    }\n\n    /* Main function */\n    function greet() constant returns (string) {\n        return greeting;\n    }\n}",
  "sourcePath": "/home/henry/Documents/Project/vote/truffle/contracts/greeter.sol",
  "compiler": {
    "name": "solc",
    "version": "0.4.21+commit.dfe3193c.Emscripten.clang"
  },
  "schemaVersion": "2.0.0",
  "updatedAt": "2018-04-13T04:23:24.827Z"
}