{
  "contractName": "Vote",
  "abi": [
    {
      "constant": true,
      "inputs": [],
      "name": "owner",
      "outputs": [
        {
          "name": "",
          "type": "address"
        }
      ],
      "payable": false,
      "stateMutability": "view",
      "type": "function"
    },
    {
      "constant": false,
      "inputs": [
        {
          "name": "newOwner",
          "type": "address"
        }
      ],
      "name": "transferOwnership",
      "outputs": [],
      "payable": false,
      "stateMutability": "nonpayable",
      "type": "function"
    },
    {
      "inputs": [],
      "payable": false,
      "stateMutability": "nonpayable",
      "type": "constructor"
    },
    {
      "constant": false,
      "inputs": [
        {
          "name": "choice",
          "type": "string"
        }
      ],
      "name": "AddChoice",
      "outputs": [],
      "payable": false,
      "stateMutability": "nonpayable",
      "type": "function"
    },
    {
      "constant": true,
      "inputs": [],
      "name": "GetChoices",
      "outputs": [
        {
          "name": "",
          "type": "string"
        }
      ],
      "payable": false,
      "stateMutability": "view",
      "type": "function"
    },
    {
      "constant": true,
      "inputs": [
        {
          "name": "voterId",
          "type": "string"
        },
        {
          "name": "voterName",
          "type": "string"
        },
        {
          "name": "decision",
          "type": "string"
        }
      ],
      "name": "MakeVote",
      "outputs": [
        {
          "name": "",
          "type": "int256"
        }
      ],
      "payable": false,
      "stateMutability": "view",
      "type": "function"
    },
    {
      "constant": true,
      "inputs": [
        {
          "name": "decision",
          "type": "string"
        }
      ],
      "name": "CheckResult",
      "outputs": [
        {
          "name": "",
          "type": "int256"
        }
      ],
      "payable": false,
      "stateMutability": "view",
      "type": "function"
    }
  ],
  "bytecode": "0x6060604052341561000f57600080fd5b336000806101000a81548173ffffffffffffffffffffffffffffffffffffffff021916908373ffffffffffffffffffffffffffffffffffffffff160217905550610d278061005e6000396000f300606060405260043610610078576000357c0100000000000000000000000000000000000000000000000000000000900463ffffffff1680630fcebeff1461007d5780638733651a146100da5780638da5cb5b1461014b578063ec61d2fd146101a0578063f2fde38b14610297578063f49295df146102d0575b600080fd5b341561008857600080fd5b6100d8600480803590602001908201803590602001908080601f0160208091040260200160405190810160405280939291908181526020018383808284378201915050505050509190505061035e565b005b34156100e557600080fd5b610135600480803590602001908201803590602001908080601f016020809104026020016040519081016040528093929190818152602001838380828437820191505050505050919050506103ca565b6040518082815260200191505060405180910390f35b341561015657600080fd5b61015e610531565b604051808273ffffffffffffffffffffffffffffffffffffffff1673ffffffffffffffffffffffffffffffffffffffff16815260200191505060405180910390f35b34156101ab57600080fd5b610281600480803590602001908201803590602001908080601f0160208091040260200160405190810160405280939291908181526020018383808284378201915050505050509190803590602001908201803590602001908080601f0160208091040260200160405190810160405280939291908181526020018383808284378201915050505050509190803590602001908201803590602001908080601f01602080910402602001604051908101604052809392919081815260200183838082843782019150505050505091905050610556565b6040518082815260200191505060405180910390f35b34156102a257600080fd5b6102ce600480803573ffffffffffffffffffffffffffffffffffffffff169060200190919050506106cd565b005b34156102db57600080fd5b6102e361076b565b6040518080602001828103825283818151815260200191508051906020019080838360005b83811015610323578082015181840152602081019050610308565b50505050905090810190601f1680156103505780820380516001836020036101000a031916815260200191505b509250505060405180910390f35b600180548060010182816103729190610b43565b9160005260206000209060020201600060408051908101604052808581526020016000815250909190915060008201518160000190805190602001906103b9929190610b75565b506020820151816001015550505050565b60006103d4610bf5565b6104ea6001805480602002602001604051908101604052809291908181526020016000905b828210156104d75783829060005260206000209060020201604080519081016040529081600082018054600181600116156101000203166002900480601f0160208091040260200160405190810160405280929190818152602001828054600181600116156101000203166002900480156104b55780601f1061048a576101008083540402835291602001916104b5565b820191906000526020600020905b81548152906001019060200180831161049857829003601f168201915b50505050508152602001600182015481525050815260200190600101906103f9565b50505050846108ee90919063ffffffff16565b90506000816000015151141515610507578060200151915061052b565b7fffffffffffffffffffffffffffffffffffffffffffffffffffffffffffffffff91505b50919050565b6000809054906101000a900473ffffffffffffffffffffffffffffffffffffffff1681565b6000610560610bf5565b6106766001805480602002602001604051908101604052809291908181526020016000905b828210156106635783829060005260206000209060020201604080519081016040529081600082018054600181600116156101000203166002900480601f0160208091040260200160405190810160405280929190818152602001828054600181600116156101000203166002900480156106415780601f1061061657610100808354040283529160200191610641565b820191906000526020600020905b81548152906001019060200180831161062457829003601f168201915b5050505050815260200160018201548152505081526020019060010190610585565b50505050846108ee90919063ffffffff16565b905060008160000151511415156106a1576001816020015101816020018181525050600191506106c5565b7fffffffffffffffffffffffffffffffffffffffffffffffffffffffffffffffff91505b509392505050565b6000809054906101000a900473ffffffffffffffffffffffffffffffffffffffff1673ffffffffffffffffffffffffffffffffffffffff163373ffffffffffffffffffffffffffffffffffffffff1614151561072857600080fd5b806000806101000a81548173ffffffffffffffffffffffffffffffffffffffff021916908373ffffffffffffffffffffffffffffffffffffffff16021790555050565b610773610c15565b61077b610c15565b600060206040519081016040528060008152509150600090505b6001805490508110156108e6576107fa6107e36040805190810160405280600181526020017f7c0000000000000000000000000000000000000000000000000000000000000081525061097c565b6107ec8461097c565b6109aa90919063ffffffff16565b91506108d76108c060018381548110151561081157fe5b90600052602060002090600202016000018054600181600116156101000203166002900480601f0160208091040260200160405190810160405280929190818152602001828054600181600116156101000203166002900480156108b65780601f1061088b576101008083540402835291602001916108b6565b820191906000526020600020905b81548152906001019060200180831161089957829003601f168201915b505050505061097c565b6108c98461097c565b6109aa90919063ffffffff16565b91508080600101915050610795565b819250505090565b6108f6610bf5565b60008090505b8251811015610974576109436109118561097c565b610935858481518110151561092257fe5b906020019060200201516000015161097c565b610a2890919063ffffffff16565b1561096757828181518110151561095657fe5b906020019060200201519150610975565b80806001019150506108fc565b5b5092915050565b610984610c29565b600060208301905060408051908101604052808451815260200182815250915050919050565b6109b2610c15565b6109ba610c15565b600083600001518560000151016040518059106109d45750595b9080825280601f01601f19166020018201604052509150602082019050610a048186602001518760000151610a3e565b610a1d8560000151820185602001518660000151610a3e565b819250505092915050565b600080610a358484610a89565b14905092915050565b60005b602082101515610a665782518452602084019350602083019250602082039150610a41565b6001826020036101000a0390508019835116818551168181178652505050505050565b60008060008060008060008060008a6000015197508a600001518a600001511015610ab657896000015197505b8a60200151965089602001519550600094505b87851015610b275786519350855192508284141515610b1057600185896020030160080260020a03199150818316828516039050600081141515610b0f57809850610b35565b5b602087019650602086019550602085019450610ac9565b89600001518b600001510398505b505050505050505092915050565b815481835581811511610b7057600202816002028360005260206000209182019101610b6f9190610c43565b5b505050565b828054600181600116156101000203166002900490600052602060002090601f016020900481019282601f10610bb657805160ff1916838001178555610be4565b82800160010185558215610be4579182015b82811115610be3578251825591602001919060010190610bc8565b5b509050610bf19190610c7a565b5090565b6040805190810160405280610c08610c9f565b8152602001600081525090565b602060405190810160405280600081525090565b604080519081016040528060008152602001600081525090565b610c7791905b80821115610c735760008082016000610c629190610cb3565b600182016000905550600201610c49565b5090565b90565b610c9c91905b80821115610c98576000816000905550600101610c80565b5090565b90565b602060405190810160405280600081525090565b50805460018160011615610100020316600290046000825580601f10610cd95750610cf8565b601f016020900490600052602060002090810190610cf79190610c7a565b5b505600a165627a7a72305820005b798e078d6519a46a42bcfb2f336315c30ad3f90cb8ed67938833443b8e4f0029",
  "source": "pragma solidity  ^0.4.17;\nimport \"./Common/owner.sol\";\nimport \"./Common/Util/String/string_common.sol\";\nimport \"./Common/vote_library.sol\";\n\ncontract Vote is owned {\n\n    using strings for *;\n    using VoteLibrary for *;\n    // event Voted(\n    //     string indexed _voterId, \n    //     string indexed _voterName,\n    //     string _decision\n    // );\n    VoteLibrary.Choice[] Choices;\n\n    function Vote() public {\n    }\n    function AddChoice(string choice) public {\n        Choices.push(VoteLibrary.Choice(choice, 0));\n    }\n    function GetChoices() public constant returns(string) {\n         \n        string memory s = \"\";\n\n        for(uint i = 0; i < Choices.length; i++) {\n            s = s.toSlice().concat(\"|\".toSlice());\n            s = s.toSlice().concat(Choices[i].name.toSlice());\n        }\n        return s;\n    }\n    //returns 1 if successful otherwise return -1;\n    function MakeVote(string voterId, string voterName, string decision) public constant returns(int) {\n        var choice = decision.StringIsInList(Choices);\n        if (bytes(choice.name).length !=0) {\n            choice.numVote = choice.numVote + 1;\n                //emit Voted(voterId, voterName, decision);\n                return 1;\n        }\n        return -1;\n\n    }\n    //-1 if does not exist\n    function CheckResult(string decision) public constant returns(int) {\n        var choice = decision.StringIsInList(Choices);\n        if (bytes(choice.name).length !=0) {\n            return choice.numVote;\n        }\n        return -1;\n    }\n\n\n}\n",
  "sourcePath": "/home/henry/Documents/Project/vote/truffle/contracts/vote_template.sol",
  "compiler": {
    "name": "solc",
    "version": "0.4.21+commit.dfe3193c.Emscripten.clang"
  },
  "schemaVersion": "2.0.0",
  "updatedAt": "2018-04-13T04:23:25.673Z"
}